:020000040800F2
:100000000000022015D0000815460008214600080F
:100010002946000831460008394600080000000063
:100020000000000000000000000000004146000841
:100030004D460008000000005946000865460008CB
:1000400069D0000869D0000869D00008714600082E
:1000500069D0000869D000083D5300082553000806
:100060000D530008BD50000869D0000869D0000891
:1000700069D0000869D0000869D0000869D000087C
:1000800069D0000869D0000869D0000869D000086C
:1000900069D0000869D0000869D00008B14D000897
:1000A00069D0000869D0000869D0000869D000084C
:1000B00069D0000899BC000869D0000869D0000820
:1000C00069D0000869D0000869D0000869D000082C
:1000D00069D0000869D0000869D0000869D000081C
:1000E00069D00008ED49000869D0000869D000080F
:1000F00069D0000869D0000869D0000869D00008FC
:1001000069D0000869D0000869D0000869D00008EB
:1001100069D0000869D0000869D0000869D00008DB
:1001200069D0000869D0000869D0000869D00008CB
:1001300069D0000869D0000869D0000869D00008BB
:1001400069D0000869D0000869D0000869D00008AB
:1001500069D0000869D0000869D0000869D000089B
:1001600069D0000869D0000869D0000869D000088B
:1001700069D0000869D0000869D0000869D000087B
:0801800069D0000869D00008F5
:1001880008B540F23800074BC2F200001B1A062BD4
:1001980000D808BD40F20003C0F20003002BF8D0DD
:1001A8009847F6E73B00002008B540F2380040F2D7
:1001B8003803C2F20000C2F200031B1A9B1003EBC3
:1001C800D373591000D108BD40F20002C0F20002FA
:1001D800002AF8D09047F6E710B540F23804C2F28A
:1001E8000004237873B9FFF7CBFF40F20003C0F295
:1001F80000032BB14DF21010C0F60000AFF30080E1
:100208000123237010BD00BF08B540F20003C0F2FF
:1002180000034BB14DF2101040F23C01C0F6000053
:10022800C2F20001AFF3008040F23800C2F20000D1
:1002380003682BB140F20003C0F2000303B19847F2
:10024800BDE80840FFF7B0BF80B586B000AF4FF0FB
:1002580008004FF0010107F0A7FF4FF480404FF06E
:10026800010108F021F84FF0CF033B614FF0000384
:100278003B754FF000037B754FF00003BB754FF0E3
:100288000003FB7507F110037848194607F07AF95F
:100298004FF4806005F090F94FF017033B714FF071
:1002A80005037B714FF00103BB714FF00103FB7134
:1002B80007F10403184605F091F94FF009033B7163
:1002C8004FF005037B714FF00003BB714FF0010342
:1002D800FB7107F10403184605F080F94FF0080395
:1002E8003B714FF005037B714FF00003BB714FF07A
:1002F8000103FB7107F10403184605F06FF94FF08D
:1003080007033B714FF005037B714FF00103BB718D
:100318004FF00103FB7107F10403184605F05EF97D
:100328004FF006033B714FF005037B714FF000035C
:10033800BB714FF00103FB7107F10403184605F088
:100348004DF94FF480404FF0010107F0ADFF4FF039
:1003580003004FF0060109F03BFD4FF04003BB607E
:100368004FF00103BB734FF000033B734FF00C03D6
:100378007B7307F10803184606F060FB4FF0030093
:100388004FF0070109F024FD4FF08003BB604FF0E8
:100398000103BB734FF000033B734FF00C037B73F7
:1003A80007F10803184606F049FB4FF003004FF029
:1003B800030109F00DFD4FF00803BB604FF0010386
:1003C800BB734FF000033B734FF00C037B7307F1D3
:1003D8000803184606F032FB4FF003004FF0020105
:1003E80009F0F6FC4FF00403BB604FF00103BB7348
:1003F8004FF000033B734FF00C037B7307F10803C6
:10040800184606F01BFB4FF003004FF0010109F0FE
:10041800DFFC4FF00203BB604FF00103BB734FF0EA
:1004280000033B734FF00C037B7307F10803184676
:1004380006F004FB4FF003004FF0000109F0C8FC80
:100448004FF00103BB604FF00103BB734FF0000393
:100458003B734FF00C037B7307F10803184606F053
:10046800EDFA07F11807BD4680BD00BF000C024039
:1004780080B485B000AF78604FF00003FB604FF0A8
:100488000003BB600AE0FB6803F10103FB60FB6843
:100498003B2BF8DDBB6803F10103BB60BA687B68DE
:1004A8009A42F4DB07F11407BD4680BC704700BFD1
:1004B80080B500AF0F4B0F4A526922F480725A611F
:1004C8004FF4C870FFF7D4FF0A4B0A4A526942F446
:1004D80080725A614FF4C870FFF7CAFF054B054A8E
:1004E800526922F480725A614FF4C870FFF7C0FF56
:1004F80080BD00BF0010024080B582B000AF034647
:100508003960FB71264B264A526922F47E725A6181
:10051800234B234A5169FA7902F0F0020A435A61DF
:100528003B68012B06D11E4B1D4A526942F0080256
:100538005A6105E01A4B1A4A526922F008025A61B8
:10054800FFF7B6FF4FF4C870FFF792FF144B144A39
:10055800526922F47E725A61114B114A5169FA7933
:100568004FEA0212D2B20A435A613B68012B06D104
:100578000B4B0B4A526942F008025A6105E0084BDE
:10058800074A526922F008025A61FFF791FF4FF4B7
:10059800C870FFF76DFF07F10807BD4680BD00BFB3
:1005A8000010024080B582B000AF7860404B4FF039
:1005B800F0021A603E4B4FF000021A713C4B4FF0AC
:1005C80000029A713A4B4FF003025A71384B4FF0C0
:1005D8000002DA713748364906F0D4FF364B364AFE
:1005E800526922F442725A61334B334A526942F4D7
:1005F80000725A61304B304A526922F008025A613F
:100608007B684FF000021A70FFF752FF7B681A7878
:10061800294B1B69DBB223F00F03DBB21343DAB2B9
:100628007B681A7049F64040FFF722FF224B224AA6
:10063800526922F442725A611F4B1F4A526942F4AE
:1006480000725A611C4B1C4A526922F008025A6116
:10065800FFF72EFF7B681A78174B1B6903F0F0032E
:100668004FEA1313DBB21343DAB27B681A7049F608
:100678004040FFF7FDFE0E4B4FF0F0021A600C4BA6
:100688004FF001021A710A4B4FF000029A71084BA1
:100698004FF003025A71064B4FF00002DA71054819
:1006A800034906F06FFF07F10807BD4680BD00BF8C
:1006B800EC0C0020000402400010024080B584B019
:1006C80000AF02460B46FA71BB714FF47A60FFF730
:1006D800CFFEFB79002B03D14FF00003FB7310E032
:1006E800FB79012B03D14FF04003FB7309E0FB7941
:1006F800022B03D14FF01003FB7302E04FF05003BD
:10070800FB73FA7BBB791343FB73FB7B63F07F03BB
:10071800DBB218464FF00001FFF7EEFE4FF47A60A7
:10072800FFF7A6FE07F11007BD4680BD80B500AFF4
:1007380049F64040FFF79CFE4FF001004FF00001E2
:10074800FFF7DAFE49F64040FFF792FE4FF002004D
:100758004FF00001FFF7D0FE49F64040FFF788FE52
:1007680080BD00BF80B500AF4FF010004FF0010111
:1007780007F01AFD364B4FF47E721A60344B4FF077
:1007880001021A71324B4FF000029A71304B4FF050
:1007980003025A712E4B4FF00002DA712D482C4992
:1007A80006F0F0FE2B4B2B4A526922F47E725A61F6
:1007B8004FF4FA40FFF75CFE4FF4FA40FFF758FE9B
:1007C8004FF4FA40FFF754FE224B224A526922F0B6
:1007D80008025A611F4B1F4A526922F480725A61FB
:1007E8001C4B4FF020025A61FFF762FE4FF4FA40AB
:1007F800FFF73EFE174B4FF020025A61FFF758FEF5
:100808004FF4FA40FFF734FE124B4FF020025A61C2
:10081800FFF74EFE4FF4FA40FFF72AFE4FF028008C
:100828004FF00001FFF768FE4FF00E004FF0000197
:10083800FFF762FE4FF001004FF00001FFF75CFE8A
:100848004FF006004FF00001FFF756FE80BD00BFD5
:10085800EC0C00200010024080B487B000AFF860B4
:10086800B9601346FB714FF00003FB754FF00003AE
:10087800BB754FF000037B75FB7903F1FF33032B46
:1008880000F2248101A252F823F000BFA508000855
:10089800FB080008810900083B0A00084FF0000324
:1008A800FB750BE0FB7DBA68D318FA7DF9688A18E6
:1008B80012781A70FB7D03F10103FB75FB7DFA6862
:1008C800D3181B78002BEDD109E0FB7DBA68D3184B
:1008D8004FF020021A70FB7D03F10103FB75FB7DCD
:1008E8000F2BF2D9BB6803F110034FF000021A7006
:1008F800EDE04FF00003FB7503E0FB7D03F101031E
:10090800FB75FB7DFA68D3181B78002BF5D14FF0E7
:100918000003BB7509E0BB7DBA68D3184FF020020D
:100928001A70BB7D03F10103BB75BA7DFB7DC3F172
:1009380010039A42EFDB4FF00003BB7511E0BB7D5B
:10094800C3F10F03BA68D318FA7D02F1FF31BA7DFB
:100958008A1AF9688A1812781A70BB7D03F10103A4
:10096800BB75BA7DFB7D9A42E9D3BB6803F11003DE
:100978004FF000021A70AAE04FF00003FB7503E085
:10098800FB7D03F10103FB75FB7DFA68D3181B7827
:10099800002BF5D1FB7DC3F110034FEA6303BB7550
:1009A8004FF000037B7515E0BA7DFB7DD31803F18A
:1009B800FF327B7DD31ABA68D318FA7D02F1FF3172
:1009C8007A7D8A1AF9688A1812781A707B7D03F181
:1009D80001037B757A7DFB7D9A42E5D34FF00003D6
:1009E8007B7509E07B7DBA68D3184FF020021A7036
:1009F8007B7D03F101037B757A7DBB7D9A42F1D340
:100A0800FA7DBB7DD3187B7509E07B7DBA68D31866
:100A18004FF020021A707B7D03F101037B757B7D0B
:100A28000F2BF2D9BB6803F110034FF000021A70C4
:100A38004DE04FF00003FB7503E0FB7D03F101037C
:100A4800FB75FB7DFA68D3181B78002BF5D14FF0A6
:100A580000037B7513E0FB7D03F101027B7DD31A54
:100A6800BA68D318FA7D02F1FF317A7D8A1AF968DB
:100A78008A1812781A707B7D03F101037B757A7DE1
:100A8800FB7D9A42E7D3FB7D03F102037B7509E006
:100A98007B7DBA68D3184FF020021A707B7D03F172
:100AA80001037B757B7D0F2BF2D9BB684FF02D02BC
:100AB8001A70BB6803F101034FF03E021A70BB685D
:100AC80003F110034FF000021A7000E000BF07F1B5
:100AD8001C07BD4680BC704780B584B000AF786005
:100AE8007B68FB600AE0FB681B7818464FF0010141
:100AF800FFF702FDFB6803F10103FB60FB68002BB5
:100B080003D0FB681B78002BEDD14FF47A60FFF718
:100B1800AFFC07F11007BD4680BD00BF80B485B0AB
:100B280000AF786039604FF00003FB734FF00003AB
:100B3800BB734FF000037B73264BBB604FF00A0377
:100B4800FB733FE0FB7BC3F10A033A68D31879686B
:100B5800BA6891FBF2F2D2B21A70FB7BC3F10A03B6
:100B68003A68D3181B78002B0AD1BB7B002B07D11E
:100B78007B7B092B04D07B7B03F101037B7307E0AC
:100B8800BB7B03F10103BB737B7B03F101037B7325
:100B9800FB7BC3F10A033A68D3181B78BA6802FBD7
:100BA80003F37A68D31A7B60BB680B4A82FB031293
:100BB8004FEAA2024FEAE373D31ABB60FB7B03F14F
:100BC800FF33FB73FB7B002BBCD107F11407BD4639
:100BD80080BC704700CA9A3B6766666684B0B0B549
:100BE80000AF07F1100C8CE80F009A4B1C4607F178
:100BF8002C050FCD0FC495E8070084E807000AE02C
:100C0800944B1B69934A14461D460FCD0FC495E8B3
:100C1800070084E807008F4B1B69002BF0D18D4B30
:100C28005B698C4A14461D460FCD0FC495E8070032
:100C380084E807004FF000004FF00001FFF73EFD89
:100C480049F64040FFF714FC824B1B68184682495E
:100C58004FF00302FFF700FE7F48FFF73DFF4FF418
:100C68007A60FFF705FC3A7D97F83030D31ADBB28B
:100C780003F10103DBB218464FF00001FFF71EFD38
:100C880049F64040FFF7F4FB3B69184672494FF0BC
:100C98000402FFF7E1FD7048FFF71EFF4FF47A608A
:100CA800FFF7E6FB3A7D97F830309A4226D03B6A48
:100CB800684A14461D460FCD0FC495E8070084E81E
:100CC80007003A7D97F83030D31ADBB218464FF058
:100CD8000001FFF7F3FC49F64040FFF7C9FB5D4B05
:100CE8001B6818465C494FF00102FFF7B5FD5A48EA
:100CF800FFF7F2FE4FF47A60FFF7BAFB3B7D1A4626
:100D080097F83030D31A022B2DD13B6A514A14463A
:100D18001D460FCD0FC495E8070084E807004D4B2A
:100D28001B694C4A14461D460FCD0FC495E80700B1
:100D380084E807004FF001004FF00001FFF7BEFC08
:100D480049F64040FFF794FB424B1B68184642495E
:100D58004FF00102FFF780FD3F48FFF7BDFE4FF45B
:100D68007A60FFF785FB3B7D1A4697F83030D31A37
:100D780003F10103022B29DCFB69364A14461D46A0
:100D88000FCD0FC495E8070084E807003A7D97F86F
:100D98003030D31ADBB203F10203DBB218464FF04E
:100DA8000001FFF78BFC49F64040FFF761FB294B38
:100DB8001B68184628494FF00102FFF74DFD2648E9
:100DC800FFF78AFE4FF47A60FFF752FB3B7D1A4625
:100DD80097F83030D31A03F10203022B34DCFB6995
:100DE800002B31D0FB69DB68002B2DD0FB69194A39
:100DF80014461D460FCD0FC495E8070084E8070088
:100E0800144BDB68134A14461D460FCD0FC495E8F2
:100E1800070084E807004FF003004FF00001FFF7D8
:100E28004DFC49F64040FFF723FB0A4B1B68184668
:100E380009494FF00102FFF70FFD0748FFF74CFE85
:100E48004FF47A60FFF714FBBD46BDE8B04004B02C
:100E5800704700BFD00C0020AC0F002080B582B0D6
:100E680000AF0346FB71FB79184603F0FDF84FF01D
:100E78000003184607F10807BD4680BD80B582B05B
:100E880000AF0346FB71FB79184603F053F94FF0A6
:100E98000003184607F10807BD4680BD80B485B039
:100EA80000AF78607B681B7903F1FF326A4913460B
:100EB8004FEA03139B18CB1803F108031B7848F675
:100EC800A04202FB03F3A3F5D212A2F5F0527B680D
:100ED8001B7903F1FF3160480B464FEA03135B1897
:100EE800C31803F109031B784FF4616101FB03F395
:100EF800A3F52833A3F54073D1187B681B7903F158
:100F0800FF32554813464FEA03139B18C31803F1E1
:100F18000B031B784FF4167202FB03F3A3F5E143AE
:100F2800C9187B681B7903F1FF324B4813464FEA17
:100F380003139B18C31803F10C031B781A461346B6
:100F48004FEA03139B1A4FEA8303A3F53463CB18C4
:100F5800FB60424B1B6803F440134FEA135348F6F7
:100F6800A04202FB03F23D4B1B6803F470234FEAD7
:100F780013434FF4616101FB03F3D118374B1B682E
:100F880003F470634FEA132213464FEA03139B1AC4
:100F98004FEA83031A46314B1B6803F4E0434FEAD8
:100FA80013334FF4167000FB03F3D318C9182B4BF7
:100FB8001B6803F070034FEA131213464FEA8303CA
:100FC8009B184FEA4303CA18244B1B6803F00F030E
:100FD800D318BB60FA68BB689A4232DC7B681B791D
:100FE80003F1FF321C4913464FEA03139B18CB1831
:100FF80003F10E031B784FF4167202FB03F3A3F5FB
:10100800E142FB68D1187B681B7903F1FF32124873
:1010180013464FEA03139B18C31803F10F031B78F9
:101028001A4613464FEA03139B1A4FEA8303A3F5A4
:101038003463CA18BB689A4203DB4FF00003FB60B5
:1010480002E04FF00103FB60FB68184607F1140744
:10105800BD4680BC704700BFAC0D00200028004092
:1010680080B487B000AF78603960784B1B7848F659
:10107800A04202FB03F3A3F5D212A2F5F052734B80
:101088005B784FF4616101FB03F3A3F52833A3F503
:101098004073D2186D4BDB784FF4167101FB03F3E4
:1010A800A3F5E143D118694B1B791A4613464FEA59
:1010B80003139B1A4FEA8303A3F53463CB187B61B0
:1010C8003B681B7903F1FF32614913464FEA03136A
:1010D8009B18CB1803F108031B7848F6A04202FBC3
:1010E80003F3A3F5D212A2F5F0523B681B7903F182
:1010F800FF3157480B464FEA03135B18C31803F137
:1011080009031B784FF4616101FB03F3A3F528334E
:10111800A3F54073D1183B681B7903F1FF324C48A3
:1011280013464FEA03139B18C31803F10B031B78EC
:101138004FF4167202FB03F3A3F5E143C9183B68A9
:101148001B7903F1FF32424813464FEA03139B18F9
:10115800C31803F10C031B781A4613464FEA03130E
:101168009B1A4FEA8303A3F53463CB183B61394BD1
:101178001B784FF4167202FB03F3A3F5E1427B6977
:10118800D118344B5B781A4613464FEA03139B1A5F
:101198004FEA8303A3F53463CB18FB603B681B79E4
:1011A80003F1FF322A4913464FEA03139B18CB1861
:1011B80003F10E031B784FF4167202FB03F3A3F539
:1011C800E1423B69D1183B681B7903F1FF322048A3
:1011D80013464FEA03139B18C31803F10F031B7838
:1011E8001A4613464FEA03139B1A4FEA8303A3F5E3
:1011F8003463CB18BB607A693B699A4203DC3A696D
:10120800FB689A4217DD7A69BB689A4203DCBA68C0
:10121800FB689A420FDD3A697B699A4203DC7A6976
:10122800BB689A4207DD3A69FB689A4206DCFA68AD
:10123800BB689A4202DC4FF0000301E04FF0010363
:10124800184607F11C07BD4680BC7047FC120020F9
:10125800AC0D00203C0E002098B500AF074B4FF0B6
:1012680000021A70064B074A1A60074B4FF000023B
:101278001A60064B4FF000021A70D3E134130020B5
:10128800F81200205C110020140E0020A80F002086
:10129800C34B1B681B7903F1FF32C24913464FEA5F
:1012A80003139B18CB1803F106031B78BE4A02FBF5
:1012B80003F3A3F57D12A2F50062B94B1B681B79F5
:1012C80003F1FF31B7480B464FEA03135B18C31805
:1012D80003F108031B7848F6A04101FB03F3A3F5CB
:1012E800D213A3F5F053D118AD4B1B681B7903F14A
:1012F800FF32AC4813464FEA03139B18C31803F197
:1013080009031B784FF4616202FB03F3A3F528334A
:10131800A3F54073C918A24B1B681B7903F1FF3270
:10132800A04813464FEA03139B18C31803F10B0395
:101338001B784FF4167202FB03F3A3F5E143C918B7
:10134800974B1B681B7903F1FF32964813464FEA07
:1013580003139B18C31803F10C031B781A46134692
:101368004FEA03139B1A4FEA8303A3F53463CB18A0
:1013780019468E4B1B688C4A02FB03F31A468C4BAA
:101388001B6803F440134FEA135348F6A04000FBD0
:1013980003F3D218864B1B6803F4E0434FEA133378
:1013A8004FF4167000FB03F0814B1B6803F47023A5
:1013B8004FEA13434FF4616404FB03F3C318D018D6
:1013C8007B4B1B6803F470634FEA132213464FEA02
:1013D80003139B1A4FEA8303C318994240F21681FC
:1013E8006F4B1B681B7903F1FF326E4913464FEAB6
:1013F80003139B18CB1803F108031B78782B00F014
:1014080005816C4B4FF001021A706B4B1B68002B67
:1014180074D0634B1B681B7903F1FF326149134693
:101428004FEA03139B18CB1803F106031B785E4A97
:1014380002FB03F3A3F57D12A2F50062584B1B686B
:101448001B7903F1FF3157480B464FEA03135B182A
:10145800C31803F108031B7848F6A04101FB03F306
:10146800A3F5D213A3F5F053D1184D4B1B681B7984
:1014780003F1FF324B4813464FEA03139B18C31876
:1014880003F109031B784FF4616202FB03F3A3F530
:101498002833A3F54073C918414B1B681B7903F126
:1014A800FF32404813464FEA03139B18C31803F151
:1014B8000B031B784FF4167202FB03F3A3F5E14309
:1014C800C918374B1B681B7903F1FF32354813469F
:1014D8004FEA03139B18C31803F10C031B781A4631
:1014E80013464FEA03139B1A4FEA8303A3F53463A9
:1014F800CA18314B1B689A4280F28880284B1B68B7
:101508001B7903F1FF32274913464FEA03139B184F
:10151800CB1803F106031B78284A02FB03F3A3F553
:10152800FD02A2F580521E4B1B681B7903F1FF31A7
:101538001C480B464FEA03135B18C31803F1080352
:101548001B7848F6A04101FB03F3A3F5D213A3F5DA
:10155800F053D118124B1B681B7903F1FF32114865
:1015680013464FEA03139B18C31803F109031B78AA
:101578004FF4616202FB03F3A3F52833A3F540732C
:10158800C918074B1B681B7903F1FF32054813463E
:101598004FEA03139B18C31803F10B0310E000BFB5
:1015A800F8120020AC0D0020805101005C0E0020D4
:1015B8000028004034130020140E002000A302006D
:1015C8001B784FF4167202FB03F3A3F5E143C91825
:1015D8001D4B1B681B7903F1FF321C4813464FEA69
:1015E80003139B18C31803F10C031B781A46134600
:1015F8004FEA03139B1A4FEA8303A3F53463CA180F
:10160800134B1A60104B1A68124B1A600E4B1B686A
:10161800DA680D4B1A60104B1B7803F10103DAB23C
:101628000D4B1A700C4B1B78052B7FF631AE0B4B0C
:101638001B78002B40F0DC81034B094A1A60064BEB
:101648004FF000021A70CEE1F8120020AC0D002015
:10165800140E002014130020A80F002034130020BB
:101668005C110020C44B1B681B7903F1FF32C3498E
:1016780013464FEA03139B18CB1803F106031B7894
:10168800BF4A02FB03F3A3F57D12A2F50062BA4B31
:101698001B681B7903F1FF31B8480B464FEA031367
:1016A8005B18C31803F108031B7848F6A04101FB37
:1016B80003F3A3F5D213A3F5F053D118AE4B1B686F
:1016C8001B7903F1FF32AD4813464FEA03139B1809
:1016D800C31803F109031B784FF4616202FB03F39B
:1016E800A3F52833A3F54073C918A34B1B681B79CE
:1016F80003F1FF32A14813464FEA03139B18C3189E
:1017080003F10B031B784FF4167202FB03F3A3F5E6
:10171800E143C918984B1B681B7903F1FF329748BE
:1017280013464FEA03139B18C31803F10C031B78E5
:101738001A4613464FEA03139B1A4FEA8303A3F58D
:101748003463CB1819468F4B1B688D4A02FB03F391
:101758001A468D4B1B6803F440134FEA135348F69F
:10176800A04000FB03F3D218874B1B6803F4E04347
:101778004FEA13334FF4167000FB03F0824B1B68DB
:1017880003F470234FEA13434FF4616404FB03F33B
:10179800C318D0187C4B1B6803F470634FEA1322FC
:1017A80013464FEA03139B1A4FEA8303C31899425F
:1017B80080F00D81704B1B681B7903F1FF326F4974
:1017C80013464FEA03139B18CB1803F108031B7841
:1017D800782B00F0FC806D4B1B68002B74D0664B97
:1017E8001B681B7903F1FF32644913464FEA031360
:1017F8009B18CB1803F106031B78614A02FB03F31D
:10180800A3F57D12A2F500625B4B1B681B7903F1FF
:10181800FF315A480B464FEA03135B18C31803F10C
:1018280008031B7848F6A04101FB03F3A3F5D21384
:10183800A3F5F053D118504B1B681B7903F1FF3205
:101848004E4813464FEA03139B18C31803F10903C4
:101858001B784FF4616202FB03F3A3F52833A3F569
:101868004073C918444B1B681B7903F1FF32434886
:1018780013464FEA03139B18C31803F10B031B7895
:101888004FF4167202FB03F3A3F5E143C9183A4B70
:101898001B681B7903F1FF32384813464FEA0313DC
:1018A8009B18C31803F10C031B781A4613464FEA1A
:1018B80003139B1A4FEA8303A3F53463CA18334B07
:1018C8001B689A4280F283802B4B1B681B7903F1BB
:1018D800FF322A4913464FEA03139B18CB1803F12A
:1018E80006031B78264A02FB03F3A3F57D12A2F533
:1018F8000062214B1B681B7903F1FF311F480B461F
:101908004FEA03135B18C31803F108031B7848F662
:10191800A04101FB03F3A3F5D213A3F5F053D118AB
:10192800154B1B681B7903F1FF32144813464FEA25
:1019380003139B18C31803F109031B784FF4616262
:1019480002FB03F3A3F52833A3F54073C9180A4B28
:101958001B681B7903F1FF32084813464FEA03134B
:101968009B18C31803F10B031B784FF4167202FB84
:1019780003F3A3F5E1430BE0F8120020AC0D0020BF
:10198800805101005C0E002000280040140E002049
:10199800C918B54B1B681B7903F1FF32B3481346CE
:1019A8004FEA03139B18C31803F10C031B781A465C
:1019B80013464FEA03139B1A4FEA8303A3F53463D4
:1019C800CA18AB4B1A60A84B1A68AA4B1A60A64BE8
:1019D8001B68DA68A44B1A60A74B1B7803F1010354
:1019E800DAB2A54B1A70A44B1B78052B7FF63AAEDA
:1019F8004FF480704FF0000107F098FB4FF400702F
:101A08004FF0000107F092FB9C4B4FF00002DA7098
:101A1800984B1B681B7903F1FF32944913464FEA30
:101A280003139B18CB1803F108031B78A3F13003A9
:101A38004FEA0313D9B28F4B1B681B7903F1FF32AE
:101A48008A4813464FEA03139B18C31803F1090386
:101A58001B78A3F13003DBB2DBB20A461343DBB2D7
:101A6800DAB2864B1A70834B1B681B7903F1FF327D
:101A78007E4913464FEA03139B18CB1803F10B0357
:101A88001B78A3F130034FEA0313D9B2794B1B68D3
:101A98001B7903F1FF32754813464FEA03139B186D
:101AA800C31803F10C031B78A3F13003DBB2DBB2DC
:101AB8000A461343DBB2DAB2704B5A706F4B4FF0E1
:101AC80000029A706D4B4FF000029A606B4B4FF01A
:101AD80000425A604FF001004FF48071674A07F0E6
:101AE800E3F9674BDB691A46614B1A604FF4805083
:101AF8004FF0010108F026F84FF480704FF0010113
:101B080007F014FB4FF4807008F084F8594B1B68F9
:101B18001B7903F1FF32554913464FEA03139B180B
:101B2800CB1803F108031B7848F6A04202FB03F325
:101B3800A3F5D212A2F5F0524E4B1B681B7903F1A4
:101B4800FF314A480B464FEA03135B18C31803F1E9
:101B580009031B784FF4616101FB03F3A3F52833F4
:101B6800A3F54073D118434B1B681B7903F1FF326F
:101B78003E4813464FEA03139B18C31803F10B039F
:101B88001B784FF4167202FB03F3A3F5E143C9185F
:101B9800384B1B681B7903F1FF32344813464FEA70
:101BA80003139B18C31803F10C031B781A4613463A
:101BB8004FEA03139B1A4FEA8303A3F53463CA1849
:101BC8002B4B1A602B4B1B681B7903F1FF322749FB
:101BD80013464FEA03139B18CB1803F10E031B7827
:101BE8004FF4167202FB03F3A3F5E141214B1B6886
:101BF8001B7903F1FF321D4813464FEA03139B1864
:101C0800C31803F10F031B781A4613464FEA031350
:101C18009B1A4FEA8303A3F53463CA18144B1B6855
:101C2800D218134B1A60154B4FF00002DA70104BA4
:101C38001B68144A82FB03024FEAA2324FEAE3739D
:101C4800D31A4FEA0313DAB2094B1B680E4981FB1A
:101C580003C1C9184FEAE1214FEAE373CB1AD9B29D
:101C6800034B1B6812E000BFF8120020AC0D0020E7
:101C7800140E002014130020A80F0020440F002089
:101C8800002800406B298274C5B3A291614880FB8B
:101C980003C04FEAA0304FEAE373C31ADBB2184619
:101CA8004FEA4010C01A4FEA8000C31A4FEA4303B4
:101CB800DBB2CB18DBB2DBB21343DBB2DAB2564B82
:101CC8001A70554B1B7803F00F03544A02FB03F2BA
:101CD800514B1B784FEA1313DBB2514901FB03F355
:101CE800D218504B1B68D2184E4B1A604D4B1B68CC
:101CF8004D4A82FB03024FEAA2124FEAE373D31A5A
:101D08004FEA0313DAB2474B1B68484981FB03C10A
:101D1800C9184FEA61114FEAE373CB1AD9B2414BA4
:101D28001B68414880FB03C04FEAA0104FEAE373E9
:101D3800C31ADBB218464FEA4010C01A4FEA8000B7
:101D4800C31A4FEA4303DBB2CB18DBB2DBB213434F
:101D5800DBB2DAB2304B5A702F4B5B7803F00F02CC
:101D680013464FEA02129B1A4FEA83031A462A4B7C
:101D78005B784FEA1313DBB22D4901FB03F3D2184A
:101D8800284B1B68D218274B1A60264B1B68294A18
:101D980082FB03024FEAA2024FEAE373D31A4FEA27
:101DA8000313D8B21F4B1968224B83FB01234FEA58
:101DB800A3024FEAE173D21A13464FEA83039B1832
:101DC8004FEA4303CA1AD3B202461343DBB2DAB26C
:101DD800114B9A70104B4FF000029A600E4B4FF067
:101DE80000425A604FF001004FF400710A4A07F0B0
:101DF8005BF84FF400504FF0010107F0A3FE4FF4D9
:101E080000704FF0010107F091F94FF4007007F0EE
:101E180001FF98BD6B298274440F0020F0F1FFFF89
:101E28006073FFFF140E0020B5814E1B89888888D7
:101E3800A8FDFFFF67666666F0B58FB00AAF034678
:101E4800FB71914B1B79FA799A427BD18F4B4FF0FA
:101E580000021A708E4B4FF001021A708A4B1A79E1
:101E68008C4B1A70FEF762FC8B4B5B6803F47003B3
:101E78004FEA1353DBB203F13003DAB2874B1A701F
:101E8800854B5B6803F470234FEA1343DBB203F11D
:101E98003003DAB2814B5A70804B4FF03A029A7095
:101EA8007D4B5B6803F480534FEA1333DBB203F1D5
:101EB8003003DAB2794BDA70774B5B6803F47063FE
:101EC8004FEA1323DBB203F13003DAB2734B1A7112
:101ED800724B4FF03A025A716F4B5B6803F0300354
:101EE8004FEA1313DBB203F13003DAB26B4B9A718A
:101EF800694B5B68DBB203F00703DBB203F1300325
:101F0800DAB2664BDA71654B4FF000021A724FF085
:101F180000004FF00001FEF7D1FB5B4B1B68184631
:101F2800FEF7DAFD4FF002004FF00001FEF7C6FBA6
:101F38005A48FEF7D1FD4FF002004FF00001FEF7BE
:101F4800BDFB6CE3564B1B79FA799A427BD14F4B18
:101F58004FF000021A704E4B4FF001021A70504BAE
:101F68001A794C4B1A70FEF7E1FB4B4B1B6803F4D4
:101F780040134FEA1353DBB203F13003DAB2474B95
:101F88001A70454B1B6803F470234FEA1343DBB206
:101F980003F13003DAB2414B5A70404B4FF03A022A
:101FA8009A703D4B1B6803F4E0434FEA1333DBB2EE
:101FB80003F13003DAB2394BDA70374B1B6803F49C
:101FC80070634FEA1323DBB203F13003DAB2334B09
:101FD8001A71324B4FF03A025A712F4B1B6803F0BB
:101FE80070034FEA1313DBB203F13003DAB22B4B61
:101FF8009A71294B1B68DBB203F00F03DBB203F1C4
:102008003003DAB2254BDA71244B4FF000021A7212
:102018004FF000004FF00001FEF750FB204B1B680B
:102028001846FEF759FD4FF002004FF00001FEF789
:1020380045FB1A48FEF750FD4FF002004FF0000133
:10204800FEF73CFBEBE2FB79092B2BD10F4B1B78FE
:1020580003F10103DAB20D4B1A700C4B1B78022BFB
:1020680003D00A4B1B78052B06D1084B1B7803F1CC
:102078000103DAB2054B1A70044B1B784FF00200CB
:102088001946FEF71BFBCAE2A41200204C0D0020E3
:10209800120E0020F80F002000280040FC1200203B
:1020A800E0130020FB79072B40F073827D4B1A79EF
:1020B8007D4B1B789A4240F08A807C4B1B78002B22
:1020C8001DD17A4B1B781A46784B1B787849CB5C24
:1020D800312B07D8754B1B787549CB5C03F101038D
:1020E800DBB201E04FF0300371498B546F4B1B7822
:1020F80003F101036E4A4FF03001D15438E26B4BC3
:102108001B78012B2FD16A4B1B78322B15D1674BCB
:102118001B781A46654B1B786549CB5C322B07D870
:10212800624B1B786249CB5C03F10103DBB201E02F
:102138004FF030035E498B541AE25C4B1B781A4609
:102148005A4B1B785A49CB5C382B07D8574B1B780E
:102158005749CB5C03F10103DBB201E04FF03003D8
:1021680053498B5404E2514B1B78032B03D04F4B3C
:102178001B78062B15D14D4B1B781A464B4B1B78F9
:102188004B49CB5C352B07D0484B1B784849CB5C77
:1021980003F10103DBB201E04FF0300344498B54F3
:1021A800E6E1424B1B781A46404B1B784049CB5C12
:1021B800392B07D03D4B1B783D49CB5C03F101031C
:1021C800DBB201E04FF0300339498B54D0E1394B91
:1021D8001A79354B1B789A4240F0CA81334B1B78E9
:1021E800032B26D1314B1B781A46304B1B783049CC
:1021F800CB5C302B07D82D4B1B782D49CB5C03F1DA
:102208000103DBB201E04FF0300329498B54274B1F
:102218001B7803F10102254B1B782549CB5C302B39
:1022280002D14FF0310301E04FF0300320498B54C5
:102238009EE11E4B1B78042B3ED11D4BDB78302BC7
:1022480015D11A4B1B781A46184B1B781849CB5CCA
:10225800382B07D8154B1B781549CB5C03F10103C4
:10226800DBB201E04FF0310311498B5480E1104B90
:10227800DB78312B40F07C810C4B1B781A460B4BDA
:102288001B780B49CB5C312B07D8084B1B780849C6
:10229800CB5C03F10103DBB201E04FF030030449EA
:1022A8008B5465E1E0130020F80F00204C0D00204E
:1022B800FC120020A41200208F4B1B78062B5DD146
:1022C8008E4B1B781A464FEA8202D3184FEA430313
:1022D800DAB28A4B5B78D318DBB2A3F11003DAB217
:1022E800874B1A70864B1B7803F00303DBB2002B75
:1022F8001DD1824BDB78302B19D1804B1B79322BC7
:1023080015D17D4B1B781A467B4B1B787B49CB5CE0
:10231800312B07D8784B1B787849CB5C03F1010344
:10232800DBB201E04FF0300374498B5414E0724B78
:102338001B781A46704B1B787049CB5C322B07D838
:102348006D4B1B786D49CB5C03F10103DBB201E0F7
:102358004FF0300369498B54674B1B7803F1010236
:10236800654B1B786549CB5C302B02D14FF03103AC
:1023780001E04FF0300361498B54F9E05E4B1B7864
:10238800072B40F0E0805D4BDB78302B4CD15B4B6A
:102398001B79322B48D15A4B1B7803F00303DBB26D
:1023A800002B20D1544B1B781A46534B1B785349AA
:1023B800CB5C382B0DD9504B1B7803F1FF334F49B9
:1023C800CB5C302B02D14FF0310301E04FF03003EA
:1023D80006E0494B1B784949CB5C03F10103DBB2AA
:1023E80046498B54C4E0444B1B781A46424B1B7831
:1023F8004249CB5C372B0DD93F4B1B7803F1FF3398
:102408003E49CB5C302B02D14FF0310301E04FF055
:10241800300306E0384B1B783849CB5C03F10103E5
:10242800DBB236498B54A3E0344BDB78302B03D135
:10243800324B1B79342B17D0304BDB78302B03D140
:102448002E4B1B79362B0FD02C4BDB78302B03D13E
:102458002A4B1B79382B07D0284BDB78312B30D10E
:10246800264B1B79312B2CD1244B9B79332B06D14E
:10247800214B1B78214A4FF03001D15478E01E4B94
:102488001B781A461C4B1B781C49CB5C382B0DD982
:10249800194B1B7803F1FF331849CB5C302B02D161
:1024A8004FF0310301E04FF0300306E0124B1B7888
:1024B8001249CB5C03F10103DBB210498B5400BF16
:1024C80056E00E4B9B79332B1CD10B4B1B781A46CD
:1024D800094B1B780949CB5C302B07D8064B1B7876
:1024E8000649CB5C03F10103DBB201E04FF0300396
:1024F80002498B543CE000BF4C0D0020FC12002028
:10250800001400207A4B1B781A46794B1B787949BE
:10251800CB5C382B0DD9764B1B7803F1FF3375490B
:10252800CB5C302B02D14FF0310301E04FF0300388
:1025380006E06F4B1B786F49CB5C03F10103DBB2FC
:102548006C498B5414E06A4B1B781A46684B1B780D
:102558006849CB5C392B07D0654B1B786549CB5C48
:1025680003F10103DBB201E04FF0300361498B5402
:102578004FF002004FF00001FEF7A0F85D48FEF7AB
:10258800ABFA5B4B1B784FF002001946FEF796F842
:1025980045E0FB79082B42D1554B1B78032B03D020
:1025A800534B1B78062B15D1514B1B781A46504BB1
:1025B8001B785049CB5C302B07D04D4B1B784D49CD
:1025C800CB5C03F1FF33DBB201E04FF0350349493F
:1025D8008B5414E0464B1B781A46454B1B784549EB
:1025E800CB5C302B07D0424B1B784249CB5C03F1C4
:1025F800FF33DBB201E04FF039033E498B544FF013
:1026080002004FF00001FEF759F83A48FEF764FA65
:10261800374B1B784FF002001946FEF74FF8344B42
:102628001B78082B40F0C280334B1E68334B1B6865
:1026380003AD1C460FCC0FC594E8070085E80700DA
:102648006B4606F1100207CA83E8070096E80F00F8
:10265800FEF7C4FA4FF0000006F002F906F01CF984
:10266800274B1A79274B1B789A424DD1214B1B785F
:10267800A3F130034FEA0313DAB21E4B5B78A3F1E0
:102688003003DBB2DBB21343DBB2DBB2FB73194BB3
:10269800DB78A3F130034FEA0313DAB2154B1B7949
:1026A800A3F13003DBB2DBB21343DBB2DBB27B73E3
:1026B800104B9B79A3F130034FEA0313DAB20D4BA9
:1026C800DB79A3F13003DBB2DBB21343DBB2DBB25D
:1026D800BB7307F10C034FF00100194606F0E2FA4C
:1026E8004FF0000043F2F22107F056F94CE000BF2A
:1026F8004C0D0020FC1200204C120020480D002038
:10270800A4120020F80F00202C4B1A792C4B1B78B0
:102718009A4239D12B4B1B78A3F130034FEA0313AC
:10272800DAB2284B5B78A3F13003DBB2DBB2134398
:10273800DBB2DBB23B72234BDB78A3F130034FEA09
:102748000313DAB21F4B1B79A3F13003DBB2DBB200
:102758001343DBB2DBB27B721A4B9B79A3F13003D4
:102768004FEA0313DAB2174BDB79A3F13003DBB27C
:10277800DBB21343DBB2DBB2BB7207F108034FF0E5
:102788000100194606F07CF906F0C6F806F0D2F802
:102798004FF00B00FEF772FBFEF75EFD084B4FF0A3
:1027A80000021A70084B4FF000021A704FF0000335
:1027B800184607F11407BD46F0BD00BFE01300201E
:1027C800F80F0020FC120020120E0020F0B58BB08C
:1027D8000AAF04E01A4B1B681A69194B1A60184BA8
:1027E8001B681B69002BF5D1154B1A68154B1A602D
:1027F800134B1A68144B1A60FDF798FF114B1E68AB
:10280800114B1B6803AD1C460FCC0FC594E807009D
:1028180085E807006B4606F1100207CA83E807003F
:1028280096E80F00FEF7DAF9084B4FF000021A702D
:10283800074B4FF000021A7007F10407BD46F0BDC0
:10284800101300204C120020480D0020F80F002023
:10285800120E0020F0B58DB00AAF0346FB719C4BF9
:102868001B79FA799A4204D09A4B1B79FA799A42E1
:1028780036D1994B4FF002021A70984B4FF0000274
:102888001A70974B1B7803F1FF33DAB2944B1A7026
:10289800934B1B781A4613464FEAC3039B1A4FEA19
:1028A8008303904A9A18904B1A608D4B1B781A46EE
:1028B80013464FEAC3039B1A4FEA83038B4A9A18BD
:1028C8008B4B1A60884B1B681B791A4613464FEAD4
:1028D80083039B184FEAC303864A9A18864B1A60EB
:1028E8007B4B1B79FA799A4240F00C81824B1B682A
:1028F8001846FEF7D3FA0346002B1DD14FF00B0004
:10290800FEF7BCFA7D4B1B684FF030021A707B4B08
:102918001B6803F101034FF030021A70774B1B68F4
:1029280003F103034FF030021A70744B1B6803F174
:1029380004034FF030021A706F4B1B681B7903F1C8
:10294800FF306D4B1B681B7903F1FF326A4B1B6824
:102958001B7903F1FF316A4C0B464FEA03135B18EE
:10296800E31803F10B034FF078041C70644C0B461A
:102978004FEA03135B18E31803F10B031978604C53
:1029880013464FEA03139B18E31803F10903197060
:102998005B4913464FEA03139B18CB1803F109034D
:1029A8001A78574903464FEA03131B18CB1803F14B
:1029B80008031A70504B1B681B7903F1FF3250490A
:1029C80013464FEA03139B18CB1803F106034FF085
:1029D80031021A70484B1B681B7903F1FF30464BD4
:1029E8001B681B7903F1FF32434B1B681B7903F10A
:1029F800FF31434C0B464FEA03135B18E31803F10E
:102A08000F034FF078041C703D4C0B464FEA03133C
:102A18005B18E31803F10F031978394C13464FEA92
:102A280003139B18E31803F10E0319703449134676
:102A38004FEA03139B18CB1803F10E031A78304999
:102A480003464FEA03131B18CB1803F10C031A7043
:102A5800FEF702FCFDF76AFE214B1B7803F1FF33FA
:102A6800DAB21F4B1A701E4B1B781A4613464FEAF0
:102A7800C3039B1A4FEA83031A4A9A181A4B1A601F
:102A8800174B1B781A4613464FEAC3039B1A4FEAA3
:102A98008303164A9A18164B1A60134B1E68144B78
:102AA8001B6803AD1C460FCC0FC594E8070085E8EA
:102AB80007006B4606F1100207CA83E8070096E88C
:102AC8000F00FEF78BF8044B4FF000021A703DE33D
:102AD800F40C002018130020120E0020A80F00206C
:102AE8000E130020541000204C120020B80E0020B5
:102AF800480D002034110020600E00203410002002
:102B0800AC0D0020A64B1B79FA799A4240F0C0819F
:102B1800FDF70CFEA24B1A79A24B1A70A24B1B6848
:102B28001B7903F1FF32A14913464FEA03139B189F
:102B3800CB1803F108031B78392B1ED89A4B1B6856
:102B48001B7903F1FF32994913464FEA03139B1887
:102B5800CB1803F108031B782F2B0ED9924B1B6857
:102B68001B7903F1FF32914913464FEA03139B186F
:102B7800CB1803F108031B7801E04FF030038C4AAF
:102B88001370894B1B681B7903F1FF328749134681
:102B98004FEA03139B18CB1803F109031B78392B51
:102BA8001ED8814B1B681B7903F1FF327F491346FE
:102BB8004FEA03139B18CB1803F109031B782F2B3B
:102BC8000ED9794B1B681B7903F1FF3277491346FD
:102BD8004FEA03139B18CB1803F109031B7801E094
:102BE8004FF03003724A53706F4B1B681B7903F127
:102BF800FF326E4913464FEA03139B18CB1803F1B3
:102C08000B031B78392B1ED8674B1B681B7903F104
:102C1800FF32664913464FEA03139B18CB1803F19A
:102C28000B031B782F2B0ED95F4B1B681B7903F105
:102C3800FF325E4913464FEA03139B18CB1803F182
:102C48000B031B7801E04FF03003594AD370564B01
:102C58001B681B7903F1FF32544913464FEA0313EB
:102C68009B18CB1803F10C031B78392B1ED84E4B3D
:102C78001B681B7903F1FF324C4913464FEA0313D3
:102C88009B18CB1803F10C031B782F2B0ED9464B3E
:102C98001B681B7903F1FF32444913464FEA0313BB
:102CA8009B18CB1803F10C031B7801E04FF030039D
:102CB8003F4A13713E4B4FF03002DA713C4BDA79E0
:102CC8003B4B9A713A4B4FF03A025A71384B5A794A
:102CD800374B9A70364B4FF000021A72324B1B6812
:102CE8001B7903F1FF32314913464FEA03139B184E
:102CF800CB1803F10E031B78392B1ED82A4B1B68FF
:102D08001B7903F1FF32294913464FEA03139B1835
:102D1800CB1803F10E031B782F2B0ED9224B1B68FF
:102D28001B7903F1FF32214913464FEA03139B181D
:102D3800CB1803F10E031B7801E04FF030031D4A56
:102D48001370194B1B681B7903F1FF32174913469F
:102D58004FEA03139B18CB1803F10F031B78392B89
:102D68002AD8114B1B681B7903F1FF320F49134610
:102D78004FEA03139B18CB1803F10F031B782F2B73
:102D88001AD9094B1B681B7903F1FF32074913460F
:102D98004FEA03139B18CB1803F10F031B780DE0C0
:102DA800181300206C0D0020600E0020AC0D0020D0
:102DB800FC1200203C0E00204FF030039A4A53705A
:102DC800994B4FF000029A70984B1B681B7903F1DE
:102DD800FF32974913464FEA03139B18CB1803F1A8
:102DE80006031B78392B1ED8904B1B681B7903F1FF
:102DF800FF328F4913464FEA03139B18CB1803F190
:102E080006031B78302B0ED9884B1B681B7903F1FE
:102E1800FF32874913464FEA03139B18CB1803F177
:102E280006031B7801E04FF03103824A1370814B8F
:102E38004FF000025A704FF000004FF00001FDF70C
:102E48003DFC7D4B1B681846FDF746FE4FF0010020
:102E58004FF00001FDF732FC7648FDF73DFE4FF0DC
:102E680002004FF00001FDF729FC7448FDF734FE1D
:102E78004FF003004FF00001FDF720FC6A48FDF712
:102E88002BFE4FF001004FF00001FDF717FC5DE14C
:102E9800FB79092B51D16A4B1B78002B11D1684B58
:102EA8001B7803F10103DAB2654B1A70644B1B7887
:102EB80003F1FF33DBB24FF002001946FDF7FEFBCA
:102EC80044E15F4B1B78072B20D85D4B1B7803F13F
:102ED8000103DAB25A4B1A70594B1B78032B03D0F3
:102EE800574B1B78062B06D1554B1B7803F1010372
:102EF800DAB2534B1A70524B1B7803F1FF33DBB233
:102F08004FF002001946FDF7D9FB1FE14C4B1B7827
:102F1800072B40F21B814A4B1B7803F10103DAB2FD
:102F2800474B1A70464B1B78A3F10903DBB24FF0ED
:102F380003001946FDF7C2FB08E1FB79072B40F0B7
:102F480005813F4B1B78002B0ED13A4B1B78382B51
:102F580005D8384B1B7803F10103DBB201E04FF0D1
:102F68003103344A1370B2E0354B1B78012B12D170
:102F7800324B1B78312B05D8304B1B7803F10103FA
:102F8800DBB201E04FF030032C4A13702B4B4FF0AB
:102F980030025A709BE02A4B1B78022B21D1274B19
:102FA8001B78322B0ED1254B5B78322B05D8234B5F
:102FB8005B7803F10103DBB201E04FF030031F4AF5
:102FC800537084E01D4B5B78382B05D81B4B5B781E
:102FD80003F10103DBB201E04FF03003174A5370ED
:102FE80075E0174B1B78042B03D0154B1B78072B68
:102FF80028D1134B1B7803F1FF32114B1B7803F1D7
:10300800FF330E49CB5C352B09D00D4B1B7803F1F0
:10301800FF330A49CB5C03F10103DBB201E04FF057
:10302800300306498B5452E03C0E0020600E00200D
:10303800AC0D0020700D002018130020FC12002099
:10304800A80F00207F4B1B78052B03D07D4B1B78E6
:10305800082B1AD17B4B1B7803F1FF32794B1B7875
:1030680003F1FF337849CB5C392B09D0754B1B78BA
:1030780003F1FF337449CB5C03F10103DBB201E0D8
:103088004FF0300370498B5421E06E4B1B78092BAD
:1030980003D06C4B1B780A2B19D16A4B1B78A3F110
:1030A8000902684B1B78A3F109036849CB5C392BEB
:1030B80009D0644B1B78A3F109036449CB5C03F185
:1030C8000103DBB201E04FF0300360498B545D4BE4
:1030D8001B78002B0FD14FF001004FF00001FDF7D6
:1030E800EDFA5B48FDF7F8FC4FF001004FF00001E6
:1030F800FDF7E4FA2AE0534B1B78082B13D84FF05E
:1031080002004FF00001FDF7D9FA4F48FDF7E4FC43
:103118004C4B1B7803F1FF33DBB24FF0020019462A
:10312800FDF7CCFA12E04FF003004FF00001FDF775
:10313800C5FA4648FDF7D0FC424B1B78A3F10903BA
:10314800DBB24FF003001946FDF7B8FA3D4B1B7888
:103158000B2B40F06C813F4B3F4A1A603F4B4FF0BE
:1031680000021A603E4B4FF000021A70354B4FF0C8
:1031780000021A7094E03B4B1A68364B1B689A425F
:1031880000F08280374B1A68324B1B68104619468C
:10319800FDF766FF0346002B76D1FDF7C7FA4FF01F
:1031A80000004FF00001FDF789FA2F4B1B68184605
:1031B8002E494FF00302FDF74FFB2C48FDF78CFC1E
:1031C8002B4B1B781A462B4B19682B4813464FEA92
:1031D800C3039B1A4FEA8303C3181C460D460FCD41
:1031E8000FC495E8070084E80700214B1B781A46AE
:1031F800224B1968224813464FEAC3039B1A4FEA29
:103208008303C3181C460D460FCD0FC495E807006D
:1032180084E80700194B1B689A69184B1A60174B0A
:103228001A68144B1A60124B1B7803F10103DAB2C7
:103238000F4B1A70134B4FF000021A704FF0000337
:10324800F7E000BFA80F0020FC1200203C0E002071
:10325800700D0020F81200205C110020140E0020D0
:1032680034130020600E002054130020AC0F0020FF
:103278000E130020480D0020B80E00204C1200202C
:1032880054100020120E00206C4B1B68DA686B4B40
:103298001A606B4B1B7803F10103DAB2684B1A70A2
:1032A800674B1B78052B7FF666AF664B1B681B794F
:1032B80003F1FF32644B1978644813464FEA03134D
:1032C8009B18C31803F108030A461A705D4B1B6864
:1032D8001B7903F1FF325C4B59785C4813464FEA7F
:1032E80003139B18C31803F109030A461A70554BB8
:1032F8001B681B7903F1FF32534BD97853481346A7
:103308004FEA03139B18C31803F10B030A461A70FC
:103318004C4B1B681B7903F1FF324B4B19794B4817
:1033280013464FEA03139B18C31803F10C030A460C
:103338001A70444B1B681B7903F1FF32444B197810
:10334800424813464FEA03139B18C31803F10603B8
:103358000A461A703B4B1B681B7903F1FF323D4B41
:1033680019783A4813464FEA03139B18C31803F118
:103378000E030A461A70334B1B681B7903F1FF32A0
:10338800344B5978314813464FEA03139B18C31836
:1033980003F10F030A461A702A4B1A682E4B1A605B
:1033A8002D4B1A682D4B1A602C4B1A682C4B1A603F
:1033B800FFF70CFA214B2B4A1A602B4B4FF00002F7
:1033C8001A602A4B4FF000021A701D4B4FF0000292
:1033D8001A7018E0194B1B681846FDF75FFD034685
:1033E800002B04D1164B4FF009021A700FE0134B53
:1033F8001B68DA68114B1A60114B1B7803F1010343
:10340800DAB20F4B1A700E4B1B78052BE2D90C4B16
:103418001B78092B07D0FDF71FFF4FF0000043F280
:10342800F22106F0B9FA124B4FF000021A704FF071
:103438000003184607F10C07BD46F0BDF81200203E
:10344800A80F0020600E0020FC120020AC0D002008
:10345800700D00203C0E0020FC13002010130020EB
:103468004C1200205C110020140E002034130020A0
:10347800120E002080B582B000AF994B4FF0540275
:103488001A70974B4FF065025A70954B4FF07202C5
:103498009A70934B4FF03102DA70914B4FF0530210
:1034A8001A718F4B4FF04E025A718D4B4FF07802C4
:1034B8009A718B4B4FF02002DA71894B4FF07802EA
:1034C8001A72874B4FF078025A72854B4FF03A02C6
:1034D8009A72834B4FF07802DA72814B4FF0780280
:1034E8001A737F4B4FF020025A737D4B4FF07802CE
:1034F8009A737B4B4FF07802DA73794B4FF00002E6
:103508001A74774B4FF054025A74754B4FF065029A
:103518009A74734B4FF07202DA74714B4FF03202A7
:103528001A756F4B4FF053025A756D4B4FF04E02A0
:103538009A756B4B4FF07802DA75694B4FF02002A1
:103548001A76674B4FF078025A76654B4FF078023F
:103558009A76634B4FF03A02DA76614B4FF0780275
:103568001A775F4B4FF078025A775D4B4FF0200285
:103578009A775B4B4FF07802DA77594B4FF0780225
:1035880083F82020564B4FF0000283F82120544B3B
:103598004FF0540283F82220514B4FF0650283F814
:1035A80023204F4B4FF0720283F824204C4B4FF0EE
:1035B800430283F825204A4B4FF0730283F82620F4
:1035C800474B4FF04E0283F82720454B4FF07802C7
:1035D80083F82820424B4FF0200283F82920404BE3
:1035E8004FF0780283F82A203D4B4FF0780283F899
:1035F8002B203B4B4FF03A0283F82C20384B4FF0EE
:10360800780283F82D20364B4FF0780283F82E206D
:10361800334B4FF0200283F82F20314B4FF07802C4
:1036280083F830202E4B4FF0780283F831202C4B52
:103638004FF0000283F83220294B4FF04B0283F8F9
:103648003320274B4FF0650283F83420244B4FF08A
:10365800720283F83520224B4FF0740283F836202B
:103668001F4B4FF0310283F837201D4B4FF04E02AD
:1036780083F838201A4B4FF0780283F83920184B1A
:103688004FF0200283F83A20154B4FF0780283F868
:103698003B20134B4FF0780283F83C20104B4FF03F
:1036A8003A0283F83D200E4B4FF0780283F83E2013
:1036B8000B4B4FF0780283F83F20094B4FF0200264
:1036C80083F84020064B4FF0780283F84120044BE2
:1036D8004FF0780283F84220014B4FF0000201E0DE
:1036E800AC0D002083F84320984B4FF04B0283F831
:1036F8004420964B4FF0650283F84520934B4FF0DA
:10370800720283F84620914B4FF0740283F84720E9
:103718008E4B4FF0320283F848208C4B4FF04E020C
:1037280083F84920894B4FF0780283F84A20874B69
:103738004FF0200283F84B20844B4FF0780283F837
:103748004C20824B4FF0780283F84D207F4B4FF08E
:103758003A0283F84E207D4B4FF0780283F84F20D1
:103768007A4B4FF0780283F85020784B4FF02002C4
:1037780083F85120754B4FF0780283F85220734B31
:103788004FF0780283F85320704B4FF0000283F813
:1037980054206E4B4FF0430283F855206B4B4FF08B
:1037A800730283F85620694B4FF0650283F857205F
:1037B800664B4FF0720283F85820644B4FF0310289
:1037C80083F85920614B4FF04E0283F85A205F4B23
:1037D8004FF0780283F85B205C4B4FF0200283F8AF
:1037E8005C205A4B4FF0780283F85D20574B4FF01E
:1037F800780283F85E20554B4FF03A0283F85F2039
:10380800524B4FF0780283F86020504B4FF078020B
:1038180083F861204D4B4FF0200283F862204B4B18
:103828004FF0780283F86320484B4FF0780283F812
:103838006420464B4FF0000283F86520444B4FF05C
:1038480030021A70424B4FF030025A70404B4FF022
:103858003A029A703E4B4FF03002DA703C4B4FF010
:1038680030021A713A4B4FF000025A71394B4FF03F
:1038780030021A70374B4FF030025A70354B4FF008
:103888003A029A70334B4FF03002DA70314B4FF0F6
:1038980030021A712F4B4FF000025A712E4B4FF025
:1038A80000021A712C4B2D4A1A602B4B4FF0000264
:1038B800DA60294B2A4A9A61274B4FF000021A61B5
:1038C800254B4FF000025A61234B4FF000029A60DB
:1038D800234B4FF000021A71214B224A1A60204BE9
:1038E8004FF000029A601E4B1F4ADA601C4B4FF0E3
:1038F80000021A611A4B184A5A61194B1B4A9A61FD
:10390800194B4FF001021A71174B194A1A60164BDE
:10391800184ADA60144B124A1A61134B4FF000022E
:103928005A61114B144A9A61124B4FF002021A71F4
:10393800104B124A1A600F4B114ADA600D4B0A4AB3
:103948001A610C4B4FF000021CE000BFAC0D0020C8
:1039580008130020340E00208C0F00206CD00008C3
:10396800FC0F002074D000082C0D0020E01000206F
:1039780080D00008FC100020DC0F00208CD000084C
:10398800181000205A61944B944A9A61944B4FF056
:1039980003021A71924B934A1A60914B924ADA6069
:1039A8008F4B8D4A1A618E4B4FF000025A618C4B37
:1039B8008E4A9A618C4B4FF004021A718A4B8C4ADA
:1039C8001A60894B4FF00002DA60874B844A1A610B
:1039D800854B4FF000025A61834B4FF000029A6109
:1039E8007E4B4FF000021A717C4B824A1A607B4B67
:1039F800814ADA60794B4FF000021A61774B764AB8
:103A08005A61764B4FF000029A617B4B4FF00102EE
:103A18001A71794B794A1A60774B794A9A60764BD2
:103A2800784ADA60744B6D4A1A61734B4FF00002A2
:103A38005A61714B4FF000029A61724B4FF00202CB
:103A48001A71704B704A1A606E4B6D4A9A606D4BD2
:103A58004FF00002DA606B4B674A1A61694B4FF00E
:103A680000025A61674B4FF000029A61674B4FF0B2
:103A780000021A71654B5F4A1A60644B644ADA6047
:103A8800624B4FF000021A61604B624A5A615F4B09
:103A98004FF000029A61604B4FF000021A715E4BC2
:103AA800544A1A605C4B5D4ADA605B4B4FF0000287
:103AB8001A61594B5A4A5A61574B4FF000029A61A2
:103AC800584B4FF000021A71564B574A1A60554B23
:103AD8004FF00002DA60534B4FF000021A61514B6D
:103AE800424A5A614F4B4FF000029A613F4B4FF0E8
:103AF80000021A713D4B3F4A1A603C4B4B4ADA6050
:103B08003A4B4FF000021A61384B354A5A61374B2D
:103B18004FF000029A61354B4FF0010283F82C20D8
:103B2800324B434A9A62314B424A5A632F4B2F4ACF
:103B38009A632E4B4FF00002DA632C4B3E4A1A640C
:103B48002A4B4FF0010283F84B20284B4FF002021A
:103B580083F85420254B394A1A65244B384ADA65CC
:103B6800224B324A1A66214B4FF000025A661F4B0D
:103B7800314A9A661D4B4FF0020283F873201B4BA3
:103B88004FF0030283F87C20184B2E4A9A67174B94
:103B98002D4AC3F88420154B264AC3F88820134BB6
:103BA8004FF00002C3F88C20104B234AC3F8902032
:103BB8000E4B4FF0030283F89B200C4B4FF004028E
:103BC80083F8A420094B214AC3F8A020074B204AB8
:103BD800C3F8AC203EE000BFFC100020540F0020CA
:103BE8001810002094D00008800E00203411002006
:103BF8009CD00008A8D00008A4120020ACD000086F
:103C0800411E0008E0130020B4D00008E010002096
:103C1800C4130020FC0F0020DC0F0020500D0020F2
:103C28002C0D002054130020B8D000085C1100208F
:103C3800AC0D00208411002018110020BD0D0020BB
:103C4800AC110020CE0D0020D4110020DF0D002083
:103C5800FC1100206A4B6B4AC3F8B020684B4FF048
:103C68000002C3F8B420664B674AC3F8B820644B17
:103C78004FF0040283F8C320614B4FF0050283F82C
:103C8800CC205F4B614AC3F8C8205D4B604AC3F83B
:103C9800D4205B4B5F4AC3F8D820594B4FF0000241
:103CA800C3F8DC20564B584AC3F8E020544B4FF079
:103CB800050283F8EB20524B4FF0060283F8F420FC
:103CC8004F4B554AC3F8F0204D4B4FF00002C3F854
:103CD800FC204B4B514AC3F80021494B4FF00002DE
:103CE800C3F80421464B484AC3F80821444B4FF017
:103CF800060283F81321444B4FF000021A71424B1D
:103D0800474A1A60404B474ADA603F4B4FF000027F
:103D18001A613D4B3A4A5A613B4B4FF000029A6197
:103D2800404B4FF001021A713E4B3F4A1A603D4B1F
:103D38003E4A9A603B4B3E4ADA603A4B324A1A6135
:103D4800384B4FF000025A61364B4FF000029A612F
:103D5800374B4FF002021A71354B364A1A60344B12
:103D6800324A9A60324B4FF00002DA60304B2D4AEB
:103D78001A612F4B4FF000025A612D4B4FF0000291
:103D88009A612D4B4FF000021A712B4B2B4A1A6087
:103D9800294B2B4ADA60284B4FF000021A61264B58
:103DA800284A5A61244B4FF000029A61244B4FF085
:103DB80001021A71224B244A1A60214B4FF000026B
:103DC800DA601F4B1C4A1A611D4B4FF000025A6102
:103DD8001B4B4FF000029A614FF000037B604FF0DD
:103DE80000033B60194B4FF001021A60184B4FF06B
:103DF80000021A70174B4FF000021A7033E000BF30
:103E080034110020AC11002018110020F00D002002
:103E180024120020D4110020010E0020FC110020E3
:103E2800A8D00008F40C0020CCD000085D280008B9
:103E380018130020D4D000083410002008130020E4
:103E4800100D0020FC0F0020340E00205C0E002016
:103E5800120E00200E1300205248FCF709FB7B6865
:103E680003F101037B607B68632BF5DD4FF00003F2
:103E78007B60FCF7E9F900F0B7F8FCF773FCFCF796
:103E880055FC4FF0010000F0B3FA4FF0000000F0CD
:103E9800AFFA4FF0020000F0ABFA4FF0030000F069
:103EA800A7FA4FF000004FF0000100F023FB00BF1D
:103EB8004FF0000000F08EFB0346012BF8D14FF0C5
:103EC800010000F0C9FA384B384A1A60384B374AB3
:103ED8001A604FF000004FF00001FCF7EFFB354B84
:103EE8001B68184634494FF00302FCF7B5FC32480A
:103EF800FCF7F2FD2F4B9A69304B1A604FF0010026
:103F08004FF00001FCF7DAFB2C4B1B681B681846C6
:103F180029494FF00402FCF79FFC2748FCF7DCFD19
:103F2800264B1B68DA68254B1A604FF002004FF0E9
:103F38000001FCF7C3FB214B1B681B681846FCF704
:103F4800CBFD1E4B1B68DA681C4B1A604FF0030050
:103F58004FF00001FCF7B2FB184B1B681B681846B2
:103F6800FCF7BAFD08F0A2F84FF0020008F056FC82
:103F780007F048FF00F07AF94FF0010005F0CCF99E
:103F880007F044FE4FF000033B6006E00548FCF7ED
:103F98006FFA3B6803F101033B603B68632BF5DD77
:103FA800FEE700BFA0860100480D0020FC0F00209E
:103FB8004C1200208C0F0020AC0F002010130020A2
:103FC80080B483B000AF7860396000BF07F10C0798
:103FD800BD4680BC704700BF80B400AF4FF6FF738A
:103FE8001846BD4680BC704780B582B000AF4FF020
:103FF80004004FF0010104F0D7F84FF008004FF02B
:10400800010104F0D1F84FF46B433B604FF001031A
:104018003B714FF00003BB714FF00103FB714FF090
:1040280000037B713B460E48194603F0ABFA4FF488
:1040380070633B604FF001033B714FF00003BB71AD
:104048004FF00103FB714FF000037B713B460548BD
:10405800194603F097FA07F10807BD4680BD00BF6F
:1040680000080240000C024080B582B000AF034651
:10407800FB71FB7903F1FF33092B53D801A252F8E6
:1040880023F000BFB5400008C1400008CD4000083B
:10409800D9400008E5400008F1400008FD4000084C
:1040A8000941000815410008214100081F484FF444
:1040B800804103F0A1FB35E01C484FF4004103F0B8
:1040C8009BFB2FE019484FF4005103F095FB29E0C2
:1040D80017484FF4807103F08FFB23E014484FF426
:1040E800007103F089FB1DE011484FF4806103F073
:1040F80083FB17E00E484FF4006103F07DFB11E0ED
:104108000A484FF4006103F077FB0BE007484FF4CF
:10411800807103F071FB05E004484FF4007103F06F
:104128006BFB00BF07F10807BD4680BD00080240D1
:10413800000C024080B582B000AF0346FB71FB79EA
:1041480003F1FF330A2B00F2888001A252F823F012
:1041580085410008914100089D410008A9410008D7
:10416800B5410008C1410008CD410008D941000807
:10417800E5410008F1410008FD41000839484FF4C5
:10418800804103F047FB69E036484FF4004103F0F3
:1041980041FB63E033484FF4005103F03BFB5DE023
:1041A80031484FF4807103F035FB57E02E484FF447
:1041B800007103F02FFB51E02B484FF4806103F0AE
:1041C80029FB4BE028484FF4006103F023FB45E04E
:1041D80024484FF4006103F01DFB3FE021484FF4F1
:1041E800807103F017FB39E01E484FF4007103F0AB
:1041F80011FB33E01B484FF4804103F00BFB1948D7
:104208004FF4004103F006FB16484FF4005103F049
:1042180001FB15484FF4807103F0FCFA12484FF483
:10422800007103F0F7FA10484FF4806103F0F2FAD6
:104238000D484FF4006103F0EDFA0A484FF40061AD
:1042480003F0E8FA07484FF4807103F0E3FA0548F1
:104258004FF4007103F0DEFA00E000BF07F1080731
:10426800BD4680BD00080240000C024080B588B001
:1042780000AF4FF080504FF0010103F0F5FF4FF011
:10428800010003F071FB4FF0010003F06FFF4FF0E6
:10429800000003F06BFF4FF0010003F00BFD00BFBF
:1042A8004FF0410004F086F90346002BF8D04FF494
:1042B800807003F01BFF4FF0010003F047FF04F08C
:1042C80039FB4FF07F037B604FF0FF03BB604FF07B
:1042D80000033B603B46184604F068FA4FF4003090
:1042E80002F0A0FC4FF40033FB604FF000033B7476
:1042F8004FF008037B744FF00103BB7407F10C0304
:10430800184602F09BFB4FF029033B754FF0000362
:104318007B754FF00003BB754FF00103FB7507F188
:104328001403184601F05AF94FF4800002F07AFCA1
:104338004FF48003FB604FF000033B744FF0080319
:104348007B744FF00103BB7407F10C03184602F0AD
:1043580075FB4FF003033B754FF000037B754FF07F
:104368000003BB754FF00103FB7507F114031846F2
:1043780001F034F94FF0040004F082FF4FF0000020
:1043880004F0A2FF4FF480404FF0010105F0DAFB82
:104398004FF01403FB764FF008037B764FF00803C9
:1043A800BB764FF005033B7607F118034FF0010089
:1043B800194604F077FC4FF04003FB774FF00003F9
:1043C8003B774FF014037B774FF00003BB7707F17F
:1043D8001C034FF00100194604F052FB4FF0000097
:1043E80043F2F22105F0D8FA07F12007BD4680BD57
:1043F80080B584B000AF0346FB71FA79134B53F8CC
:10440800223018464FF0010103F0CEFEFA79104B26
:1044180033F81230BB604FF001033B734FF00003D9
:10442800BB734FF00103FB734FF002037B73FA7900
:10443800084B53F8222007F108031046194603F0E9
:10444800A1F807F11007BD4680BD00BFE8D00008FD
:10445800E0D000080000002080B483B000AF03461D
:10446800FB71FA79064B53F82230F979054A32F88C
:1044780011201A8307F10C07BD4680BC704700BFA6
:1044880000000020E0D0000880B483B000AF0346ED
:10449800FB71FA79064B53F82230F979054A32F85C
:1044A80011205A8307F10C07BD4680BC704700BF36
:1044B80000000020E0D0000880B483B000AF0346BD
:1044C800FB71FA79094B53F82230F979074A52F807
:1044D80021205169F879064A32F810204A405A6179
:1044E80007F10C07BD4680BC704700BF00000020E4
:1044F800E0D0000880B588B000AF02460B46FA71DC
:10450800BB71FA792C4B53F8223018464FF0010151
:1045180003F04AFE4FF480404FF0010103F0C4FE5F
:104528004FF000033B774FF00003FB77FA79234BFA
:1045380033F81230BB61FA79214B53F8222007F186
:1045480018031046194603F01DF8BB79012B2ED12C
:10455800FB791C4AD25CFB791B49CB5C1046194697
:1045680005F036FCFA79194B33F812303B614FF0FD
:1045780000033B754FF008037B754FF00103BB75D3
:1045880007F11003184602F059FAFB79104AD35C78
:104598003B734FF00F037B734FF00F03BB734FF068
:1045A8000103FB7307F10C03184601F017F807F134
:1045B8002007BD4680BD00BFFCD00008F8D0000829
:1045C8001000002004D1000808D1000800D100081C
:1045D8000CD1000880B582B000AF0346FB71FA79B0
:1045E800084B53F82220F979074B33F8113010465D
:1045F800194603F0A9F80346184607F10807BD460F
:1046080080BD00BF10000020F8D0000880B400AFC3
:10461800BD4680BC704700BF80B400AFFEE700BF56
:1046280080B400AFFEE700BF80B400AFFEE700BF74
:1046380080B400AFFEE700BF80B400AFBD4680BCC9
:10464800704700BF80B400AFBD4680BC704700BF54
:1046580080B400AFBD4680BC704700BF80B400AFD7
:10466800BD4680BC704700BF80B586B000AF4FF430
:10467800804005F0EBFA0346002B00F0AA814FF0CA
:104688000003FB754FF000033B61AB4B1B681B78C5
:10469800302B15D1A84B1B6803F101031B78302B75
:1046A8000ED1A54B1B6803F103031B78302B07D1F0
:1046B800A14B1B6803F104031B78302B00F08181A8
:1046C8009D4B1B681B784FF4167202FB03F3A3F58E
:1046D800E141994B1B6803F101031B781A46134605
:1046E8004FEA03139B1A4FEA8303A3F53463C918EF
:1046F800914B1B6803F103031B781A4613464FEAD4
:1047080083039B184FEA4303A3F5F073CA188A4B37
:104718001B6803F104031B78A3F13003D318FB6073
:10472800FB6803F1FF33FB60844B1A68824B9A42A3
:1047380040F0C7804FF00403FB7549E0FB7D022B76
:1047480003D1FB7D03F1FF33FB75FB7D042B1DD8E3
:1047580001A252F823F000BF754700087D47000802
:1047680095470008854700088D4700084FF001036A
:104778003B610BE04FF00A033B6107E04FF03C035D
:104788003B6103E04FF416733B6100BF6A4B1A6844
:10479800FB7DC3F10403D318F9683A6991FBF2F27F
:1047A800D2B202F13002D2B21A70634B1A68FB7DA2
:1047B800C3F10403D3181B78C3F130033A6902FB31
:1047C80003F3FA68D318FB60FB7D03F1FF33FB7535
:1047D800FB7DFF2BB2D15A4B1B68BB604FF0040323
:1047E800FB7549E0FB7D022B03D1FB7D03F1FF3311
:1047F800FB75FB7D042B1DD801A252F823F000BFE6
:104808001D480008254800083D4800082D480008B4
:10481800354800084FF001033B610BE04FF00A03F5
:104828003B6107E04FF03C033B6103E04FF4167334
:104838003B6100BF434B1A68FB7DC3F10403D318E7
:10484800B9683A6991FBF2F2D2B202F13002D2B2FF
:104858001A703C4B1A68FB7DC3F10403D3181B780C
:10486800C3F130033A6902FB03F3BA68D318BB609B
:10487800FB7D03F1FF33FB75FB7DFF2BB2D14FF0BE
:1048880000004FF00001FBF719FF2B4B1B6818467F
:104898002D494FF00102FBF7DFFF2B48FCF71CF90D
:1048A8004FF001004FF00001FBF708FF254B1B6894
:1048B800184625494FF00102FBF7CEFF2248FCF7C6
:1048C8000BF922484FF0010102F03EFF0346002B8E
:1048D80008D14FF00B00FFF72DFC194B4FF00A02DF
:1048E8001A606EE019484FF0010102F02DFF0346EF
:1048F800002B0ED0124B1B68002B0AD04FF00B0078
:10490800FFF718FC0E4B1B6803F1FF320C4B1A60C3
:1049180057E00E484FF0010102F016FF0346002B46
:104928004FD0074B1B68002B4BD1094B7B604FF0D6
:104938000003FB7542E000BF341000204C12002039
:104948003C140020100D0020AC0F0020000C024089
:104958005C1100207868FCF7A1FA0346002B26D1E9
:104968001E4B1B6803F101021C4B1A601B4B1B6892
:10497800132B0ADC1A4B1B6893F8233003F102034C
:10498800DBB21846FFF770FB1BE0144B1B68132BB8
:1049980008DD124B1B68272B04DC4FF00B00FFF7D8
:1049A800C9FB0EE00D4B4FF000021A6009E07B686E
:1049B800DB687B60FB7D03F10103FB75FB7D052B49
:1049C800C8D94FF4804005F07FF94FF4800002F019
:1049D80029F907F11807BD4680BD00BF4014002023
:1049E80014130020F0B58DB00AAF4FF4805005F0D5
:1049F8002DF90346002B00F0AE80964B1B68964AB3
:104A08001268126802F106021278A2F1300293FBD2
:104A1800F2F102FB01F29B1A002B40F093804FF059
:104A28000B00FFF787FB8C4B1B6893F8233003F1CF
:104A38000203DBB21846FFF717FB884B4FF0000262
:104A48001A60864B1A68864B1A60864B1B781A4682
:104A5800854B1968854813464FEAC3039B1A4FEAEA
:104A68008303C3181C460D460FCD0FC495E80700F5
:104A780084E807007B4B1B781A467D4B19687D48F4
:104A880013464FEAC3039B1A4FEA8303C3181C4615
:104A98000D460FCD0FC495E8070084E80700744B56
:104AA800754A1A60724B1A686F4B1A606D4B1B7807
:104AB80003F10103DAB26B4B1A706F4B1968664B3E
:104AC8001B681B7903F1FF326C4813464FEA031346
:104AD8009B18C31803F10E031B780B70664B1B68F9
:104AE80003F101015C4B1B681B7903F1FF3263483A
:104AF80013464FEA03139B18C31803F10F031B78DF
:104B08000B705D4B1B6803F103034FF030021A7002
:104B1800594B1B6803F104034FF030021A70FBF77E
:104B280005FE4FF000004FF00001FBF7C7FD524BA8
:104B38001B68184652494FF00102FBF78DFE50489A
:104B4800FBF7CAFF4FF4805005F0BEF84FF4003071
:104B580002F068F815E14FF4005005F077F80346C5
:104B6800002B00F00E81474BDB6903F440134FEA3A
:104B780013534FF4167202FB03F1424BDB6903F443
:104B880070234FEA134213464FEA03139B1A4FEA66
:104B98008303C9183B4BDB6903F4E0434FEA133244
:104BA80013464FEA83039B184FEA4303CA18354B51
:104BB800DB6903F470634FEA1323D3187B60314B2E
:104BC8001B6A03F440134FEA13534FF4167202FBA7
:104BD80003F12C4B1B6A03F470234FEA134213466C
:104BE8004FEA03139B1A4FEA8303C918254B1B6A24
:104BF80003F4E0434FEA133213464FEA83039B184A
:104C08004FEA4303CA181F4B1B6A03F470634FEA49
:104C18001323D3183B600F4B1B680F4A12681268A6
:104C280002F106021278A2F1300293FBF2F102FBC4
:104C380001F29B1A002B38D07A683B689A4240F3FD
:104C48009880044B1B68092B1ED0024B1B6803F18C
:104C5800FF331BE05C0E0020141300203C140020DE
:104C6800401400200E130020480D0020B80E00202C
:104C78004C1200205410002034100020AC0D0020ED
:104C8800AC0F0020002800404FF001033F4A126893
:104C9800126802F106021278A2F1300293FBF2F1D7
:104CA80002FB01F29B1A002B63D14FF00B00FFF7B8
:104CB80041FA374B1B684FF030021A70344B1B68AF
:104CC80003F101034FF030021A70314B1B6803F1F6
:104CD80003034FF030021A702D4B1B6803F10403D5
:104CE8004FF030021A702B4B1A68294B9A4238D170
:104CF800FBF71CFD284B1B7803F1FF33DAB2264B78
:104D08001A70254B1B781A4613464FEAC3039B1AA1
:104D18004FEA8303214A9A181E4B1A601E4B1B78D0
:104D28001A4613464FEAC3039B1A4FEA83031C4AE9
:104D38009A181C4B1A60174B1E681A4B1B6803AD58
:104D48001C460FCC0FC594E8070085E807006B46A2
:104D580006F1100207CA83E8070096E80F00FBF780
:104D68003DFFFCF779FA4FF0000043F2F22104F01E
:104D780013FE4FF4005004F0A7FF4FF4003001F089
:104D880051FF07F10C07BD46F0BD00BF141300200A
:104D9800341000204C1200200E1300205410002064
:104DA800B80E0020480D002080B500AF4FF040003D
:104DB80001F010FF0346002B00F0B180934B1B78E5
:104DC800002B12D0914B1B78012B02D0022B05D05F
:104DD8000AE04FF00700FDF72FF89CE04FF00700BE
:104DE800FDF738FD00BF96E095E0894B1B68DB684E
:104DF800002B00F09080864B1B68DA68844B1A60A1
:104E0800834B1B681B791A46824B1B681B7903F17D
:104E180003039A4245DB7F4B1B68DA687E4B1A60B6
:104E28004FF001004FF00001FBF748FC7A4B1B687C
:104E38001B68184679494FF00102FBF70DFD7748CA
:104E4800FBF74AFE744B1B68DA68734B1A604FF025
:104E580002004FF00001FBF731FC6F4B1B681B6829
:104E680018466E494FF00102FBF7F6FC6B48FBF75A
:104E780033FE4FF003004FF00001FBF71FFC644BBB
:104E88001B681B68184665494FF00402FBF7E4FCF1
:104E98006248FBF721FE5F4B1B68DA685D4B1A60BE
:104EA80039E05B4B1B681A795A4B1B681B79D31A7C
:104EB800DBB218464FF00001FBF700FC544B1B68AF
:104EC8001A69554B1A60544B1B681B68184653499E
:104ED8004FF00102FBF7C0FC5048FBF7FDFD4C4BBF
:104EE8001B681A794B4B1B681B79D31ADBB203F189
:104EF8000103DBB218464FF00001FBF7DFFB444B20
:104F08001B681B68184645494FF00402FBF7A4FCD0
:104F18004248FBF7E1FD4FF0400001F083FE4FF0FF
:104F2800800001F057FE0346002B00F0BA80374B93
:104F38001B78002B12D0354B1B78012B02D0022B8B
:104F480005D00AE04FF00800FCF776FFA5E04FF027
:104F58000800FDF77FFC00BF9FE09EE02C4B1B681C
:104F68001B79002B00F09980294B1B681A69284B84
:104F78001A60274B1B681A79264B1B681B799A42C3
:104F88004ED24FF001004FF00001FBF797FB204B8A
:104F98001B681B68184621494FF00402FBF75CFCAC
:104FA8001E48FBF799FD1A4B1B68DA681A4B1A6002
:104FB8004FF002004FF00001FBF780FB164B1B6817
:104FC8001B68184615494FF00102FBF745FC1348CA
:104FD800FBF782FD104B1B68DA680F4B1A604FF025
:104FE80003004FF00001FBF769FB0B4B1B681B68C4
:104FF80018460A494FF00102FBF72EFC0748FBF759
:105008006BFD034B1A68034B1A6046E0120E002032
:105018004C120020480D002010130020AC0F002077
:10502800204B1B681A79204B1B681B79D31ADBB2FB
:1050380003F10103DBB218464FF00001FBF73EFB1A
:10504800184B1B681B68184618494FF00402FBF7F9
:1050580003FC1648FBF740FD124B1B68DA68144B3B
:105068001A60104B1B681A790F4B1B681B79D31AEF
:10507800DBB203F10203DBB218464FF00001FBF785
:105088001DFB0B4B1B681B68184608494FF00102B3
:10509800FBF7E2FB0548FBF71FFD4FF0800001F02E
:1050A800C1FD80BD4C120020480D0020AC0F00202F
:1050B80010130020F0B58BB00AAF4FF0080001F0D4
:1050C80089FD0346002B00F00481864B1B78002BDA
:1050D80012D0844B1B78012B02D0022B05D00AE09A
:1050E8004FF00900FCF7A8FEF3E04FF00900FDF7C8
:1050F800B1FB00BFEDE0ECE07B4B1B689B69002B2C
:1051080000F09780794B1B78042B00F29280FBF714
:105118000DFB4FF000004FF00001FBF7CFFA724B88
:105128001B681B68184672494FF00302FBF794FB93
:105138006F48FBF7D1FC6C4B1B689A696D4B1A6082
:105148004FF001004FF00001FBF7B8FA694B1B68FC
:105158001B68184666494FF00402FBF77DFB64485C
:10516800FBF7BAFC634B1B68DB68002B26D0614B4E
:105178001B68DA685F4B1A604FF002004FF00001BD
:10518800FBF79CFA5B4B1B681B681846FBF7A4FCF3
:10519800584B1B68DB68002B10D0564B1B68DA682D
:1051A800544B1A604FF003004FF00001FBF786FAEA
:1051B800504B1B681B681846FBF78EFC4B4B1B7843
:1051C8001A464D4B19684D4813464FEAC3039B1ABC
:1051D8004FEA8303C3181C460D460FCD0FC495E84C
:1051E800070084E80700414B1B781A463E4B1968B4
:1051F800434813464FEAC3039B1A4FEA8303C31875
:105208001C460D460FCD0FC495E8070084E807003B
:10521800354B1B689A69344B1A60334B1A68364B06
:105228001A60324B1B7803F10103DAB22F4B1A7064
:105238004FE02E4B1B78002B3ED02B4B1B681B7965
:10524800002B39D1FBF772FA284B1B7803F1FF3397
:10525800DAB2264B1A70254B1B781A4613464FEACA
:10526800C3039B1A4FEA8303254A9A181E4B1A60F8
:105278001E4B1B781A4613464FEAC3039B1A4FEA84
:1052880083031E4A9A181C4B1A60174B1E681A4B48
:105298001B6803AD1C460FCC0FC594E8070085E8D2
:1052A80007006B4606F1100207CA83E8070096E874
:1052B8000F00FBF793FC0CE00B4B1B689B68002B63
:1052C80007D0094B1B689B68074A12681279104679
:1052D80098474FF0080001F0A5FC07F10407BD4608
:1052E800F0BD00BF120E00204C1200200E1300204B
:1052F800AC0F002010130020480D0020B80E00202D
:105308005410002080B500AF4FF0040001F062FC9B
:105318004FF0040001F086FC80BD00BF80B500AFEF
:105328004FF0020001F056FC4FF0020001F07AFC49
:1053380080BD00BF80B500AF4FF0010001F04AFC0E
:105348004FF0010001F06EFC80BD00BF80B500AFDA
:10535800124B124A126842F001021A600F4B4FF0CA
:1053680000029A600D4A0D4B1B6823F0847323F4E6
:1053780080331360094B0A4A5A60084B074A12687F
:1053880022F480221A60054B4FF00002DA6000F028
:1053980093F8044B4FF000629A6080BD00380240D9
:1053A8001030002400ED00E080B487B000AF4FF06B
:1053B80000033B614FF000037B614FF00203FB6089
:1053C8004FF00003BB604FF002037B60354B9B68D6
:1053D80003F00C033B613B69042B07D0082B09D071
:1053E800002B45D1304B314A1A6045E02E4B304AEC
:1053F8001A6041E02B4B5B6803F480034FEA935338
:10540800BB60284B5B6803F03F037B60BB68002BE5
:105418000ED0274A7B68B2FBF3F2224B596847F655
:10542800C0730B404FEA931303FB02F37B610DE05B
:105438001E4A7B68B2FBF3F21A4B596847F6C073F1
:105448000B404FEA931303FB02F37B61154B5B6838
:1054580003F440334FEA134303F101034FEA4303D4
:10546800FB607A69FB68B2FBF3F20F4B1A6003E04A
:105478000D4B0E4A1A6000BF0A4B9B6803F0F003FD
:105488004FEA13130B4AD35CDBB23B61064B1A6835
:105498003B6922FA03F2044B1A6007F11C07BD4668
:1054A80080BC704700380240140000200024F4003B
:1054B80040787D011800002080B483B000AF4FF021
:1054C80000037B604FF000033B60374B364A12689D
:1054D80042F480321A60344B1B6803F400333B609B
:1054E8007B6803F101037B603B68002B03D17B6879
:1054F800B3F5A06FEFD12C4B1B6803F40033002BDE
:1055080003D04FF001033B6002E04FF000033B6023
:105518003B68012B42D1244B234A126C42F0805243
:105528001A64224B214A126842F480421A601E4BC8
:105538001D4A92689A601C4B1B4A926842F40042CA
:105548009A60194B184A926842F4A0529A60164B16
:10555800174A5A60144B144A126842F080721A6053
:1055680000BF114B1B6803F00073002BF9D0114BDF
:1055780040F205621A600C4B0B4A926822F0030253
:105588009A60094B084A926842F002029A6000BF8A
:10559800054B9B6803F00C03082BF9D107F10C07A6
:1055A800BD4680BC704700BF003802400070004014
:1055B80008544007003C024080B483B000AF7860D4
:1055C800054A7B6843F0BF6343F40033D36007F1B7
:1055D8000C07BD4680BC704700ED00E080B485B084
:1055E80000AF78604FF00003FB734FF00003BB730C
:1055F8004FF00F037B737B68DB78002B3CD02A4B82
:10560800DB686FEA030303F4E0634FEA1323FB73D9
:10561800FB7BC3F10403BB737A7BFB7B42FA03F386
:105628007B737B685B781A46BB7B02FA03F3FB73D8
:105638007B689A787B7B1340DAB2FB7B1343FB735E
:10564800FB7B4FEA0313FB73184A7B681B78D3185C
:10565800FA7B83F80023154B7A6812784FEA5212C6
:10566800D2B27968097801F01F014FF0010000FA01
:1056780001F143F8221011E00C4B7A6812784FEAD6
:105688005212D2B27968097801F01F014FF0010077
:1056980000FA01F102F1200243F8221007F1140781
:1056A800BD4680BC704700BF00ED00E000E100E0AF
:1056B80080B483B000AF78603960074A3B6823F054
:1056C800604323F07F0379680B43936007F10C076D
:1056D800BD4680BC704700BF00ED00E080B483B0D9
:1056E80000AF02460B46FA71BB71BB79002B06D09E
:1056F800094B094A1169FA790A431A6107E0064B0E
:10570800054A1169FA796FEA02020A401A6107F13B
:105718000C07BD4680BC704700ED00E080B483B044
:1057280000AF78607B68042B06D1094B084A1268E1
:1057380042F004021A6005E0054B054A126822F09F
:1057480004021A6007F10C07BD4680BC704700BF11
:1057580010E000E080B500AF4FF480704FF0010119
:1057680002F042FE4FF480704FF0000102F03CFE60
:1057780080BD00BF80B485B000AF786039604FF05D
:105788000003FB604FF00003FB727B685B68FB6003
:10579800FB6823F0407323F48073FB603B681B793C
:1057A8004FEA03223B681B681343FA681343FB6004
:1057B8007B68FA685A607B689B68FB60FA68194BDB
:1057C8001340FB603B681A693B68DB681A433B6817
:1057D8009B681A433B685B794FEA43031343FA68B3
:1057E8001343FB607B68FA689A607B68DB6AFB603E
:1057F800FB6823F47003FB603B681B7D03F1FF33F8
:10580800DAB2FB7A1343FB72FB7A4FEA0353FA6866
:105818001343FB607B68FA68DA6207F11407BD4638
:1058280080BC7047FDF7FFC080B483B000AF7860DC
:105838007B684FF000021A607B684FF000021A7113
:105848007B684FF000025A717B684FF000029A6043
:105858007B684FF00002DA607B684FF000021A6143
:105868007B684FF001021A7507F10C07BD4680BC32
:10587800704700BF80B485B000AF78604FF0000378
:10588800FB600E4B5B68FB60FA680D4B1340FB60D6
:105898007B681A687B685B681A437B689B681A4355
:1058A8007B68DB681343FA681343FB60034BFA68B1
:1058B8005A6007F11407BD4680BC704700230140B9
:1058C800E030FCFF80B483B000AF78607B684FF0B5
:1058D80000021A607B684FF000025A607B684FF044
:1058E80000029A607B684FF00002DA6007F10C074B
:1058F800BD4680BC704700BF80B483B000AF7860FD
:105908000B46FB70FB78002B06D07B689B6843F046
:1059180001027B689A6005E07B689B6823F00102BE
:105928007B689A6007F10C07BD4680BC704700BFD2
:1059380080B485B000AF786039604FF00003FB6039
:105948007B685B68FB60FB6823F4400323F4007307
:10595800FB60FA683B681343FB607B68FA685A602F
:1059680007F11407BD4680BC704700BF80B483B000
:1059780000AF786013460A467A803B807A887B6855
:105988005A623A887B689A6207F10C07BD4680BC68
:10599800704700BF80B485B000AF78600B46FB70DD
:1059A8004FF00003FB607B685B68FB60FB6823F0DB
:1059B8001F03FB60FB78FA681343FB607B68FA6897
:1059C8005A6007F11407BD4680BC704780B483B0A5
:1059D80000AF0346FB71FB79002B06D0084B084A41
:1059E800526842F400025A6005E0054B044A5268C6
:1059F80022F400025A6007F10C07BD4680BC7047CC
:105A08000023014080B483B000AF0346FB71FB79EB
:105A1800002B06D0084B084A526842F480025A60AC
:105A280005E0054B044A526822F480025A6007F1E7
:105A38000C07BD4680BC70470023014080B485B088
:105A480000AF7860F970BA707B704FF00003FB60AC
:105A58004FF00003BB60FB78092B27D97B68DB6814
:105A6800FB60FA7813464FEA43039B18A3F11E0321
:105A78004FF0070202FA03F3BB60BB686FEA030347
:105A8800FA681340FB607978FA7813464FEA4303C3
:105A98009B18A3F11E0301FA03F3BB60FA68BB6805
:105AA8001343FB607B68FA68DA6022E07B681B6955
:105AB800FB60FA7813464FEA43039B184FF007023E
:105AC80002FA03F3BB60BB686FEA0303FA6813408A
